{
  "abi": [
    {
      "inputs": [
        {
          "internalType": "address",
          "name": "_token1",
          "type": "address"
        },
        {
          "internalType": "address",
          "name": "_owner1",
          "type": "address"
        },
        {
          "internalType": "address",
          "name": "_token2",
          "type": "address"
        },
        {
          "internalType": "address",
          "name": "_owner2",
          "type": "address"
        }
      ],
      "stateMutability": "nonpayable",
      "type": "constructor"
    },
    {
      "inputs": [],
      "name": "ammount1",
      "outputs": [
        {
          "internalType": "uint256",
          "name": "",
          "type": "uint256"
        }
      ],
      "stateMutability": "view",
      "type": "function"
    },
    {
      "inputs": [],
      "name": "ammount2",
      "outputs": [
        {
          "internalType": "uint256",
          "name": "",
          "type": "uint256"
        }
      ],
      "stateMutability": "view",
      "type": "function"
    },
    {
      "inputs": [],
      "name": "owner1",
      "outputs": [
        {
          "internalType": "address",
          "name": "",
          "type": "address"
        }
      ],
      "stateMutability": "view",
      "type": "function"
    },
    {
      "inputs": [],
      "name": "owner2",
      "outputs": [
        {
          "internalType": "address",
          "name": "",
          "type": "address"
        }
      ],
      "stateMutability": "view",
      "type": "function"
    },
    {
      "inputs": [
        {
          "internalType": "uint256",
          "name": "_ammount1",
          "type": "uint256"
        },
        {
          "internalType": "uint256",
          "name": "_ammount2",
          "type": "uint256"
        }
      ],
      "name": "swap",
      "outputs": [],
      "stateMutability": "nonpayable",
      "type": "function"
    },
    {
      "inputs": [],
      "name": "token1",
      "outputs": [
        {
          "internalType": "contract IERC20",
          "name": "",
          "type": "address"
        }
      ],
      "stateMutability": "view",
      "type": "function"
    },
    {
      "inputs": [],
      "name": "token2",
      "outputs": [
        {
          "internalType": "contract IERC20",
          "name": "",
          "type": "address"
        }
      ],
      "stateMutability": "view",
      "type": "function"
    }
  ],
  "bytecode": "608060405234801561001057600080fd5b5060405161053d38038061053d8339818101604052608081101561003357600080fd5b50805160208201516040830151606090930151600080546001600160a01b039485166001600160a01b031991821617909155600180549385169382169390931790925560038054948416948316949094179093556004805492909316911617905561049a806100a36000396000f3fe608060405234801561001057600080fd5b506004361061007d5760003560e01c8063736889141161005b57806373688914146100c8578063c7db179c146100d0578063d21220a7146100d8578063d96073cf146100e05761007d565b80631da42bb01461008257806325be124e1461009c57806352709725146100c0575b600080fd5b61008a610105565b60408051918252519081900360200190f35b6100a461010b565b604080516001600160a01b039092168252519081900360200190f35b6100a461011a565b6100a4610129565b61008a610138565b6100a461013e565b610103600480360360408110156100f657600080fd5b508035906020013561014d565b005b60025481565b6003546001600160a01b031681565b6004546001600160a01b031681565b6001546001600160a01b031681565b60055481565b6000546001600160a01b031681565b6001546001600160a01b031633148061017057506004546001600160a01b031633145b6101ad576040805162461bcd60e51b81526020600482015260096024820152682737ba1027bbb732b960b91b604482015290519081900360640190fd5b6003546004805460408051636eb1769f60e11b81526001600160a01b0392831693810193909352306024840152518493919091169163dd62ed3e916044808301926020929190829003018186803b15801561020757600080fd5b505afa15801561021b573d6000803e3d6000fd5b505050506040513d602081101561023157600080fd5b50511015610277576040805162461bcd60e51b815260206004820152600e60248201526d546f6b656e3220746f6f206c6f7760901b604482015290519081900360640190fd5b60005460015460408051636eb1769f60e11b81526001600160a01b03928316600482015230602482015290518593929092169163dd62ed3e91604480820192602092909190829003018186803b1580156102d057600080fd5b505afa1580156102e4573d6000803e3d6000fd5b505050506040513d60208110156102fa57600080fd5b50511015610340576040805162461bcd60e51b815260206004820152600e60248201526d546f6b656e3120746f6f206c6f7760901b604482015290519081900360640190fd5b600054600154600454610363926001600160a01b0390811692811691168561038a565b600354600454600154610386926001600160a01b0390811692811691168461038a565b5050565b604080516323b872dd60e01b81526001600160a01b03858116600483015284811660248301526044820184905291516000928716916323b872dd91606480830192602092919082900301818787803b1580156103e557600080fd5b505af11580156103f9573d6000803e3d6000fd5b505050506040513d602081101561040f57600080fd5b505190508061045d576040805162461bcd60e51b8152602060048201526015602482015274151bdad95b881d1c985b9cd9995c8819985a5b1959605a1b604482015290519081900360640190fd5b505050505056fea2646970667358221220be6b13171a99e6322a8d951fe45a39bebea31ee50431846f51308a7b7669f47764736f6c63430007060033",
  "bytecodeSha1": "fd70a8d569e17d88a6bf9fd63bd3d9452ea9b137",
  "compiler": {
    "evm_version": "istanbul",
    "optimizer": {
      "enabled": true,
      "runs": 200
    },
    "version": "0.7.6+commit.7338295f"
  },
  "contractName": "tokenSwap",
  "language": "Solidity",
  "natspec": {
    "kind": "dev",
    "methods": {},
    "version": 1
  },
  "opcodes": "PUSH1 0x80 PUSH1 0x40 MSTORE CALLVALUE DUP1 ISZERO PUSH2 0x10 JUMPI PUSH1 0x0 DUP1 REVERT JUMPDEST POP PUSH1 0x4 CALLDATASIZE LT PUSH2 0x7D JUMPI PUSH1 0x0 CALLDATALOAD PUSH1 0xE0 SHR DUP1 PUSH4 0x73688914 GT PUSH2 0x5B JUMPI DUP1 PUSH4 0x73688914 EQ PUSH2 0xC8 JUMPI DUP1 PUSH4 0xC7DB179C EQ PUSH2 0xD0 JUMPI DUP1 PUSH4 0xD21220A7 EQ PUSH2 0xD8 JUMPI DUP1 PUSH4 0xD96073CF EQ PUSH2 0xE0 JUMPI PUSH2 0x7D JUMP JUMPDEST DUP1 PUSH4 0x1DA42BB0 EQ PUSH2 0x82 JUMPI DUP1 PUSH4 0x25BE124E EQ PUSH2 0x9C JUMPI DUP1 PUSH4 0x52709725 EQ PUSH2 0xC0 JUMPI JUMPDEST PUSH1 0x0 DUP1 REVERT JUMPDEST PUSH2 0x8A PUSH2 0x105 JUMP JUMPDEST PUSH1 0x40 DUP1 MLOAD SWAP2 DUP3 MSTORE MLOAD SWAP1 DUP2 SWAP1 SUB PUSH1 0x20 ADD SWAP1 RETURN JUMPDEST PUSH2 0xA4 PUSH2 0x10B JUMP JUMPDEST PUSH1 0x40 DUP1 MLOAD PUSH1 0x1 PUSH1 0x1 PUSH1 0xA0 SHL SUB SWAP1 SWAP3 AND DUP3 MSTORE MLOAD SWAP1 DUP2 SWAP1 SUB PUSH1 0x20 ADD SWAP1 RETURN JUMPDEST PUSH2 0xA4 PUSH2 0x11A JUMP JUMPDEST PUSH2 0xA4 PUSH2 0x129 JUMP JUMPDEST PUSH2 0x8A PUSH2 0x138 JUMP JUMPDEST PUSH2 0xA4 PUSH2 0x13E JUMP JUMPDEST PUSH2 0x103 PUSH1 0x4 DUP1 CALLDATASIZE SUB PUSH1 0x40 DUP2 LT ISZERO PUSH2 0xF6 JUMPI PUSH1 0x0 DUP1 REVERT JUMPDEST POP DUP1 CALLDATALOAD SWAP1 PUSH1 0x20 ADD CALLDATALOAD PUSH2 0x14D JUMP JUMPDEST STOP JUMPDEST PUSH1 0x2 SLOAD DUP2 JUMP JUMPDEST PUSH1 0x3 SLOAD PUSH1 0x1 PUSH1 0x1 PUSH1 0xA0 SHL SUB AND DUP2 JUMP JUMPDEST PUSH1 0x4 SLOAD PUSH1 0x1 PUSH1 0x1 PUSH1 0xA0 SHL SUB AND DUP2 JUMP JUMPDEST PUSH1 0x1 SLOAD PUSH1 0x1 PUSH1 0x1 PUSH1 0xA0 SHL SUB AND DUP2 JUMP JUMPDEST PUSH1 0x5 SLOAD DUP2 JUMP JUMPDEST PUSH1 0x0 SLOAD PUSH1 0x1 PUSH1 0x1 PUSH1 0xA0 SHL SUB AND DUP2 JUMP JUMPDEST PUSH1 0x1 SLOAD PUSH1 0x1 PUSH1 0x1 PUSH1 0xA0 SHL SUB AND CALLER EQ DUP1 PUSH2 0x170 JUMPI POP PUSH1 0x4 SLOAD PUSH1 0x1 PUSH1 0x1 PUSH1 0xA0 SHL SUB AND CALLER EQ JUMPDEST PUSH2 0x1AD JUMPI PUSH1 0x40 DUP1 MLOAD PUSH3 0x461BCD PUSH1 0xE5 SHL DUP2 MSTORE PUSH1 0x20 PUSH1 0x4 DUP3 ADD MSTORE PUSH1 0x9 PUSH1 0x24 DUP3 ADD MSTORE PUSH9 0x2737BA1027BBB732B9 PUSH1 0xB9 SHL PUSH1 0x44 DUP3 ADD MSTORE SWAP1 MLOAD SWAP1 DUP2 SWAP1 SUB PUSH1 0x64 ADD SWAP1 REVERT JUMPDEST PUSH1 0x3 SLOAD PUSH1 0x4 DUP1 SLOAD PUSH1 0x40 DUP1 MLOAD PUSH4 0x6EB1769F PUSH1 0xE1 SHL DUP2 MSTORE PUSH1 0x1 PUSH1 0x1 PUSH1 0xA0 SHL SUB SWAP3 DUP4 AND SWAP4 DUP2 ADD SWAP4 SWAP1 SWAP4 MSTORE ADDRESS PUSH1 0x24 DUP5 ADD MSTORE MLOAD DUP5 SWAP4 SWAP2 SWAP1 SWAP2 AND SWAP2 PUSH4 0xDD62ED3E SWAP2 PUSH1 0x44 DUP1 DUP4 ADD SWAP3 PUSH1 0x20 SWAP3 SWAP2 SWAP1 DUP3 SWAP1 SUB ADD DUP2 DUP7 DUP1 EXTCODESIZE ISZERO DUP1 ISZERO PUSH2 0x207 JUMPI PUSH1 0x0 DUP1 REVERT JUMPDEST POP GAS STATICCALL ISZERO DUP1 ISZERO PUSH2 0x21B JUMPI RETURNDATASIZE PUSH1 0x0 DUP1 RETURNDATACOPY RETURNDATASIZE PUSH1 0x0 REVERT JUMPDEST POP POP POP POP PUSH1 0x40 MLOAD RETURNDATASIZE PUSH1 0x20 DUP2 LT ISZERO PUSH2 0x231 JUMPI PUSH1 0x0 DUP1 REVERT JUMPDEST POP MLOAD LT ISZERO PUSH2 0x277 JUMPI PUSH1 0x40 DUP1 MLOAD PUSH3 0x461BCD PUSH1 0xE5 SHL DUP2 MSTORE PUSH1 0x20 PUSH1 0x4 DUP3 ADD MSTORE PUSH1 0xE PUSH1 0x24 DUP3 ADD MSTORE PUSH14 0x546F6B656E3220746F6F206C6F77 PUSH1 0x90 SHL PUSH1 0x44 DUP3 ADD MSTORE SWAP1 MLOAD SWAP1 DUP2 SWAP1 SUB PUSH1 0x64 ADD SWAP1 REVERT JUMPDEST PUSH1 0x0 SLOAD PUSH1 0x1 SLOAD PUSH1 0x40 DUP1 MLOAD PUSH4 0x6EB1769F PUSH1 0xE1 SHL DUP2 MSTORE PUSH1 0x1 PUSH1 0x1 PUSH1 0xA0 SHL SUB SWAP3 DUP4 AND PUSH1 0x4 DUP3 ADD MSTORE ADDRESS PUSH1 0x24 DUP3 ADD MSTORE SWAP1 MLOAD DUP6 SWAP4 SWAP3 SWAP1 SWAP3 AND SWAP2 PUSH4 0xDD62ED3E SWAP2 PUSH1 0x44 DUP1 DUP3 ADD SWAP3 PUSH1 0x20 SWAP3 SWAP1 SWAP2 SWAP1 DUP3 SWAP1 SUB ADD DUP2 DUP7 DUP1 EXTCODESIZE ISZERO DUP1 ISZERO PUSH2 0x2D0 JUMPI PUSH1 0x0 DUP1 REVERT JUMPDEST POP GAS STATICCALL ISZERO DUP1 ISZERO PUSH2 0x2E4 JUMPI RETURNDATASIZE PUSH1 0x0 DUP1 RETURNDATACOPY RETURNDATASIZE PUSH1 0x0 REVERT JUMPDEST POP POP POP POP PUSH1 0x40 MLOAD RETURNDATASIZE PUSH1 0x20 DUP2 LT ISZERO PUSH2 0x2FA JUMPI PUSH1 0x0 DUP1 REVERT JUMPDEST POP MLOAD LT ISZERO PUSH2 0x340 JUMPI PUSH1 0x40 DUP1 MLOAD PUSH3 0x461BCD PUSH1 0xE5 SHL DUP2 MSTORE PUSH1 0x20 PUSH1 0x4 DUP3 ADD MSTORE PUSH1 0xE PUSH1 0x24 DUP3 ADD MSTORE PUSH14 0x546F6B656E3120746F6F206C6F77 PUSH1 0x90 SHL PUSH1 0x44 DUP3 ADD MSTORE SWAP1 MLOAD SWAP1 DUP2 SWAP1 SUB PUSH1 0x64 ADD SWAP1 REVERT JUMPDEST PUSH1 0x0 SLOAD PUSH1 0x1 SLOAD PUSH1 0x4 SLOAD PUSH2 0x363 SWAP3 PUSH1 0x1 PUSH1 0x1 PUSH1 0xA0 SHL SUB SWAP1 DUP2 AND SWAP3 DUP2 AND SWAP2 AND DUP6 PUSH2 0x38A JUMP JUMPDEST PUSH1 0x3 SLOAD PUSH1 0x4 SLOAD PUSH1 0x1 SLOAD PUSH2 0x386 SWAP3 PUSH1 0x1 PUSH1 0x1 PUSH1 0xA0 SHL SUB SWAP1 DUP2 AND SWAP3 DUP2 AND SWAP2 AND DUP5 PUSH2 0x38A JUMP JUMPDEST POP POP JUMP JUMPDEST PUSH1 0x40 DUP1 MLOAD PUSH4 0x23B872DD PUSH1 0xE0 SHL DUP2 MSTORE PUSH1 0x1 PUSH1 0x1 PUSH1 0xA0 SHL SUB DUP6 DUP2 AND PUSH1 0x4 DUP4 ADD MSTORE DUP5 DUP2 AND PUSH1 0x24 DUP4 ADD MSTORE PUSH1 0x44 DUP3 ADD DUP5 SWAP1 MSTORE SWAP2 MLOAD PUSH1 0x0 SWAP3 DUP8 AND SWAP2 PUSH4 0x23B872DD SWAP2 PUSH1 0x64 DUP1 DUP4 ADD SWAP3 PUSH1 0x20 SWAP3 SWAP2 SWAP1 DUP3 SWAP1 SUB ADD DUP2 DUP8 DUP8 DUP1 EXTCODESIZE ISZERO DUP1 ISZERO PUSH2 0x3E5 JUMPI PUSH1 0x0 DUP1 REVERT JUMPDEST POP GAS CALL ISZERO DUP1 ISZERO PUSH2 0x3F9 JUMPI RETURNDATASIZE PUSH1 0x0 DUP1 RETURNDATACOPY RETURNDATASIZE PUSH1 0x0 REVERT JUMPDEST POP POP POP POP PUSH1 0x40 MLOAD RETURNDATASIZE PUSH1 0x20 DUP2 LT ISZERO PUSH2 0x40F JUMPI PUSH1 0x0 DUP1 REVERT JUMPDEST POP MLOAD SWAP1 POP DUP1 PUSH2 0x45D JUMPI PUSH1 0x40 DUP1 MLOAD PUSH3 0x461BCD PUSH1 0xE5 SHL DUP2 MSTORE PUSH1 0x20 PUSH1 0x4 DUP3 ADD MSTORE PUSH1 0x15 PUSH1 0x24 DUP3 ADD MSTORE PUSH21 0x151BDAD95B881D1C985B9CD9995C8819985A5B1959 PUSH1 0x5A SHL PUSH1 0x44 DUP3 ADD MSTORE SWAP1 MLOAD SWAP1 DUP2 SWAP1 SUB PUSH1 0x64 ADD SWAP1 REVERT JUMPDEST POP POP POP POP POP JUMP INVALID LOG2 PUSH5 0x6970667358 0x22 SLT KECCAK256 0xBE PUSH12 0x13171A99E6322A8D951FE45A CODECOPY 0xBE 0xBE LOG3 0x1E 0xE5 DIV BALANCE DUP5 PUSH16 0x51308A7B7669F47764736F6C63430007 MOD STOP CALLER ",
  "sha1": "c5d8e623c849b79190a0e1f516692ee3b8adc24a",
  "source": "pragma solidity ^0.7.6;\n\nimport \"@openzeppelin/contracts/token/ERC20/IERC20.sol\";\n\n\n\ncontract tokenSwap{\n    IERC20 public token1;\n    address public owner1;\n    uint public ammount1;\n    IERC20 public token2;\n    address public owner2;\n    uint public ammount2;\n\n    constructor(\n        address _token1,\n        address _owner1,\n        address _token2,\n        address _owner2\n    ){\n        token1 = IERC20(_token1);\n        owner1 = _owner1;\n        token2 = IERC20(_token2);\n        owner2 = _owner2;\n    }   \n    function swap(uint _ammount1, uint _ammount2) public {\n        require(msg.sender == owner1 || msg.sender == owner2, \"Not Owner\");\n        require(token2.allowance(owner2, address(this)) >= _ammount2,\"Token2 too low\");\n        require(token1.allowance(owner1, address(this)) >= _ammount1,\"Token1 too low\");\n        \n\n        _safetransfer(token1, owner1, owner2, _ammount1);\n        _safetransfer(token2, owner2, owner1, _ammount2);\n    }\n\n    function _safetransfer(IERC20 token,address from,address to, uint amm)private {\n        bool sent = token.transferFrom(from,to,amm);\n        require(sent,\"Token transfer failed\");\n\n\n    }\n}",
  "sourcePath": "contracts/tokenSwap.sol",
  "type": "contract"
}